{
  "_format": "hh-sol-artifact-1",
  "contractName": "MyContract",
  "sourceName": "contracts/MyContracts.sol",
  "abi": [
    {
      "anonymous": false,
      "inputs": [
        {
          "indexed": false,
          "internalType": "string",
          "name": "",
          "type": "string"
        },
        {
          "indexed": false,
          "internalType": "uint256",
          "name": "",
          "type": "uint256"
        }
      ],
      "name": "MyLog",
      "type": "event"
    },
    {
      "inputs": [
        {
          "internalType": "uint256",
          "name": "amount",
          "type": "uint256"
        },
        {
          "internalType": "bool",
          "name": "redeemType",
          "type": "bool"
        },
        {
          "internalType": "address",
          "name": "_cErc20Contract",
          "type": "address"
        }
      ],
      "name": "redeemCErc20Tokens",
      "outputs": [
        {
          "internalType": "bool",
          "name": "",
          "type": "bool"
        }
      ],
      "stateMutability": "nonpayable",
      "type": "function"
    },
    {
      "inputs": [
        {
          "internalType": "uint256",
          "name": "amount",
          "type": "uint256"
        },
        {
          "internalType": "bool",
          "name": "redeemType",
          "type": "bool"
        },
        {
          "internalType": "address",
          "name": "_cEtherContract",
          "type": "address"
        }
      ],
      "name": "redeemCEth",
      "outputs": [
        {
          "internalType": "bool",
          "name": "",
          "type": "bool"
        }
      ],
      "stateMutability": "nonpayable",
      "type": "function"
    },
    {
      "inputs": [
        {
          "internalType": "address",
          "name": "_erc20Contract",
          "type": "address"
        },
        {
          "internalType": "address",
          "name": "_cErc20Contract",
          "type": "address"
        },
        {
          "internalType": "uint256",
          "name": "_numTokensToSupply",
          "type": "uint256"
        }
      ],
      "name": "supplyErc20ToCompound",
      "outputs": [
        {
          "internalType": "uint256",
          "name": "",
          "type": "uint256"
        }
      ],
      "stateMutability": "nonpayable",
      "type": "function"
    },
    {
      "inputs": [
        {
          "internalType": "address payable",
          "name": "_cEtherContract",
          "type": "address"
        }
      ],
      "name": "supplyEthToCompound",
      "outputs": [
        {
          "internalType": "bool",
          "name": "",
          "type": "bool"
        }
      ],
      "stateMutability": "payable",
      "type": "function"
    },
    {
      "stateMutability": "payable",
      "type": "receive"
    }
  ],
  "bytecode": "0x608060405234801561001057600080fd5b50610948806100206000396000f3fe6080604052600436106100435760003560e01c80633b7ba25f1461004f578063a82ffd8814610082578063c6fb5014146100a5578063d0ace48e146100a557600080fd5b3661004a57005b600080fd5b34801561005b57600080fd5b5061006f61006a366004610833565b6100c5565b6040519081526020015b60405180910390f35b61009561009036600461080f565b6103df565b6040519015158152602001610079565b3480156100b157600080fd5b506100956100c03660046108aa565b610638565b60008084905060008490506000816001600160a01b031663bd6d894d6040518163ffffffff1660e01b8152600401602060405180830381600087803b15801561010d57600080fd5b505af1158015610121573d6000803e3d6000fd5b505050506040513d601f19601f820116820180604052508101906101459190610891565b90507f8d1cced004452bd270777a8c670f9f7e7c4fdde56f2db331fe289d39dc2624ad816040516101b091906040808252601b908201527f45786368616e6765205261746520287363616c6564207570293a2000000000006060820152602081019190915260800190565b60405180910390a16000826001600160a01b031663ae9d70b06040518163ffffffff1660e01b8152600401602060405180830381600087803b1580156101f557600080fd5b505af1158015610209573d6000803e3d6000fd5b505050506040513d601f19601f8201168201806040525081019061022d9190610891565b90507f8d1cced004452bd270777a8c670f9f7e7c4fdde56f2db331fe289d39dc2624ad81604051610298919060408082526018908201527f537570706c7920526174653a20287363616c65642075702900000000000000006060820152602081019190915260800190565b60405180910390a16040517f095ea7b30000000000000000000000000000000000000000000000000000000081526001600160a01b0388811660048301526024820188905285169063095ea7b390604401602060405180830381600087803b15801561030357600080fd5b505af1158015610317573d6000803e3d6000fd5b505050506040513d601f19601f8201168201806040525081019061033b9190610874565b506040517fa0712d68000000000000000000000000000000000000000000000000000000008152600481018790526000906001600160a01b0385169063a0712d6890602401602060405180830381600087803b15801561039a57600080fd5b505af11580156103ae573d6000803e3d6000fd5b505050506040513d601f19601f820116820180604052508101906103d29190610891565b9998505050505050505050565b6000808290506000816001600160a01b031663bd6d894d6040518163ffffffff1660e01b8152600401602060405180830381600087803b15801561042257600080fd5b505af1158015610436573d6000803e3d6000fd5b505050506040513d601f19601f8201168201806040525081019061045a9190610891565b90507f8d1cced004452bd270777a8c670f9f7e7c4fdde56f2db331fe289d39dc2624ad816040516104eb919060408082526023908201527f45786368616e6765205261746520287363616c6564207570206279203165313860608201527f293a2000000000000000000000000000000000000000000000000000000000006080820152602081019190915260a00190565b60405180910390a16000826001600160a01b031663ae9d70b06040518163ffffffff1660e01b8152600401602060405180830381600087803b15801561053057600080fd5b505af1158015610544573d6000803e3d6000fd5b505050506040513d601f19601f820116820180604052508101906105689190610891565b6040805181815260209181018290527f537570706c7920526174653a20287363616c656420757020627920316531382960608201529081018290529091507f8d1cced004452bd270777a8c670f9f7e7c4fdde56f2db331fe289d39dc2624ad9060800160405180910390a1826001600160a01b0316631249c58b346203d090906040518363ffffffff1660e01b81526004016000604051808303818589803b15801561061357600080fd5b5088f1158015610627573d6000803e3d6000fd5b5060019a9950505050505050505050565b60008181600185151514156106e1576040517fdb006a75000000000000000000000000000000000000000000000000000000008152600481018790526001600160a01b0383169063db006a7590602401602060405180830381600087803b1580156106a257600080fd5b505af11580156106b6573d6000803e3d6000fd5b505050506040513d601f19601f820116820180604052508101906106da9190610891565b9050610777565b6040517f852a12e3000000000000000000000000000000000000000000000000000000008152600481018790526001600160a01b0383169063852a12e390602401602060405180830381600087803b15801561073c57600080fd5b505af1158015610750573d6000803e3d6000fd5b505050506040513d601f19601f820116820180604052508101906107749190610891565b90505b604080518181526024818301527f49662074686973206973206e6f7420302c2074686572652077617320616e206560608201527f72726f720000000000000000000000000000000000000000000000000000000060808201526020810183905290517f8d1cced004452bd270777a8c670f9f7e7c4fdde56f2db331fe289d39dc2624ad9181900360a00190a150600195945050505050565b60006020828403121561082157600080fd5b813561082c816108ec565b9392505050565b60008060006060848603121561084857600080fd5b8335610853816108ec565b92506020840135610863816108ec565b929592945050506040919091013590565b60006020828403121561088657600080fd5b815161082c81610904565b6000602082840312156108a357600080fd5b5051919050565b6000806000606084860312156108bf57600080fd5b8335925060208401356108d181610904565b915060408401356108e1816108ec565b809150509250925092565b6001600160a01b038116811461090157600080fd5b50565b801515811461090157600080fdfea26469706673582212204f8bf16dd7afbae1fa26af040f1b4cde04af5a29a44b42ac9f0ed4dc80ef569e64736f6c63430008060033",
  "linkReferences": {},
  "deployedLinkReferences": {}
}